{
  "_format": "hh-sol-artifact-1",
  "contractName": "MerkleVerifier",
  "sourceName": "contracts/MerkleVerifier.sol",
  "abi": [
    {
      "inputs": [],
      "stateMutability": "nonpayable",
      "type": "constructor"
    },
    {
      "inputs": [],
      "name": "merkleRoot",
      "outputs": [
        {
          "internalType": "bytes32",
          "name": "",
          "type": "bytes32"
        }
      ],
      "stateMutability": "view",
      "type": "function"
    },
    {
      "inputs": [],
      "name": "owner",
      "outputs": [
        {
          "internalType": "address",
          "name": "",
          "type": "address"
        }
      ],
      "stateMutability": "view",
      "type": "function"
    },
    {
      "inputs": [
        {
          "internalType": "bytes32",
          "name": "_merkleRoot",
          "type": "bytes32"
        }
      ],
      "name": "setMerkleRoot",
      "outputs": [],
      "stateMutability": "nonpayable",
      "type": "function"
    },
    {
      "inputs": [
        {
          "internalType": "bytes32[]",
          "name": "proof",
          "type": "bytes32[]"
        },
        {
          "internalType": "bytes32",
          "name": "leaf",
          "type": "bytes32"
        }
      ],
      "name": "verifyTransaction",
      "outputs": [
        {
          "internalType": "bool",
          "name": "",
          "type": "bool"
        }
      ],
      "stateMutability": "view",
      "type": "function"
    }
  ],
  "bytecode": "0x608060405234801561001057600080fd5b5033600160006101000a81548173ffffffffffffffffffffffffffffffffffffffff021916908373ffffffffffffffffffffffffffffffffffffffff1602179055506106aa806100616000396000f3fe608060405234801561001057600080fd5b506004361061004c5760003560e01c80632eb4a7ab1461005157806342e496421461006f5780637cb647591461009f5780638da5cb5b146100bb575b600080fd5b6100596100d9565b60405161006691906104b1565b60405180910390f35b61008960048036038101906100849190610328565b6100df565b6040516100969190610496565b60405180910390f35b6100b960048036038101906100b4919061037c565b6101bd565b005b6100c3610257565b6040516100d0919061047b565b60405180910390f35b60005481565b60008082905060005b84518110156101ae57600085828151811061012c577f4e487b7100000000000000000000000000000000000000000000000000000000600052603260045260246000fd5b602002602001015190508083101561016e57828160405160200161015192919061044f565b60405160208183030381529060405280519060200120925061019a565b808360405160200161018192919061044f565b6040516020818303038152906040528051906020012092505b5080806101a6906105ac565b9150506100e8565b50600054811491505092915050565b600160009054906101000a900473ffffffffffffffffffffffffffffffffffffffff1673ffffffffffffffffffffffffffffffffffffffff163373ffffffffffffffffffffffffffffffffffffffff161461024d576040517f08c379a0000000000000000000000000000000000000000000000000000000008152600401610244906104cc565b60405180910390fd5b8060008190555050565b600160009054906101000a900473ffffffffffffffffffffffffffffffffffffffff1681565b600061029061028b8461051d565b6104ec565b905080838252602082019050828560208602820111156102af57600080fd5b60005b858110156102df57816102c58882610313565b8452602084019350602083019250506001810190506102b2565b5050509392505050565b600082601f8301126102fa57600080fd5b813561030a84826020860161027d565b91505092915050565b6000813590506103228161065d565b92915050565b6000806040838503121561033b57600080fd5b600083013567ffffffffffffffff81111561035557600080fd5b610361858286016102e9565b925050602061037285828601610313565b9150509250929050565b60006020828403121561038e57600080fd5b600061039c84828501610313565b91505092915050565b6103ae8161055a565b82525050565b6103bd8161056c565b82525050565b6103cc81610578565b82525050565b6103e36103de82610578565b6105f5565b82525050565b60006103f6602583610549565b91507f4f6e6c7920746865206f776e65722063616e2063616c6c20746869732066756e60008301527f6374696f6e0000000000000000000000000000000000000000000000000000006020830152604082019050919050565b600061045b82856103d2565b60208201915061046b82846103d2565b6020820191508190509392505050565b600060208201905061049060008301846103a5565b92915050565b60006020820190506104ab60008301846103b4565b92915050565b60006020820190506104c660008301846103c3565b92915050565b600060208201905081810360008301526104e5816103e9565b9050919050565b6000604051905081810181811067ffffffffffffffff821117156105135761051261062e565b5b8060405250919050565b600067ffffffffffffffff8211156105385761053761062e565b5b602082029050602081019050919050565b600082825260208201905092915050565b600061056582610582565b9050919050565b60008115159050919050565b6000819050919050565b600073ffffffffffffffffffffffffffffffffffffffff82169050919050565b6000819050919050565b60006105b7826105a2565b91507fffffffffffffffffffffffffffffffffffffffffffffffffffffffffffffffff8214156105ea576105e96105ff565b5b600182019050919050565b6000819050919050565b7f4e487b7100000000000000000000000000000000000000000000000000000000600052601160045260246000fd5b7f4e487b7100000000000000000000000000000000000000000000000000000000600052604160045260246000fd5b61066681610578565b811461067157600080fd5b5056fea2646970667358221220d3543d6615ca07e0f5997d1f34fb712799ffe86aac970420f9f79025b593ae8364736f6c63430008000033",
  "linkReferences": {},
  "deployedLinkReferences": {}
}